:100000000C9434000C9451000C9451000C94510049
:100010000C9451000C9451000C9451000C9451001C
:100020000C9451000C9451000C9451000C94250137
:100030000C94E0000C9451000C9451000C9451006D
:100040000C9451000C9451000C949B020C945100A0
:100050000C9451000C9451000C9451000C945100DC
:100060000C9451000C94510011241FBECFEFD8E026
:10007000DEBFCDBF14E0A0E0B1E0E0E7F7E002C0F2
:1000800005900D92A430B107D9F715E0A4E0B4E0D3
:1000900001C01D92A938B107E1F70E9469020C94D2
:1000A000B6030C94000087E880937A00089580647A
:1000B00080937C00EAE7F0E0808180648083808127
:1000C00086FDFDCF2091780030917900822F932F0B
:1000D0000895AF92BF92CF92DF92EF92FF920F936B
:1000E0001F93CF93DF930E945300F89410928000E7
:1000F0008BE08093810010928500109284007894A8
:10010000E3E5F0E08081817F808328EE33E00F2EED
:10011000F0E9EF2EF1E0FF2EF02DBB240F2EFFE6CD
:10012000CF2EDD24F02D0F2EF6E0AF2EF02D08EEB1
:1001300013E005C0C7010197F1F7215030402115A8
:100140003105C1F781E00E945700EC0182E00E9476
:1001500057009C018B2DCB30D10508F081E08093B6
:10016000840480918404882311F49801E8CF40E04E
:1001700050E060E378E38FE190E00E949403215027
:1001800030403093010120930001BE0180E090E0F7
:1001900028EC30E040E050E00E947503605D77405D
:1001A0008040904025EF33E040E050E00E9494030F
:1001B0003093860420938504F601A0829801BFCF76
:1001C0001F920F920FB60F9211248F939F93AF93AC
:1001D000BF93EF93FF93EBE2F0E080818D7F80830C
:1001E00080918404882311F410926F0080910001A3
:1001F00090910101A0E0B0E0B695A79597958795FD
:10020000B695A795979587959093890080938800D8
:100210008091850490918604A0E0B0E0B695A79502
:1002200097958795B695A7959795879590938B0009
:1002300080938A00FF91EF91BF91AF919F918F9131
:100240000F900FBE0F901F9018951F920F920FB630
:100250000F9211248F93EF93FF93EBE2F0E08081F4
:1002600082608083FF91EF918F910F900FBE0F906E
:100270001F9018952F923F924F925F926F927F92AC
:100280008F929F92AF92BF92CF92DF92EF92FF92A6
:100290000F931F93DF93CF93CDB7DEB761970FB660
:1002A000F894DEBF0FBECDBF0E9453000E948402AF
:1002B000F894109280008BE080938100109285006A
:1002C000109284007894E3E5F0E08081817F808360
:1002D0000F2EF4E04F2EF4E05F2EF02D1D86CE01A0
:1002E00001968E879F87CE010696888B998B0F2E5D
:1002F000F5E02F2EF02D0E94D2022E833F834887F7
:1003000059876A87DE011196FE01369685E00190D5
:100310000D928150E1F789819A810097D1F1853062
:10032000910561F0863091051CF40397E4F013C049
:100330008630910551F00A97B4F40DC08C81F2011A
:10034000E80FF11D8D8180830EC08C81F201E80FD2
:10035000F11D108208C08D85F201E80FF11D108299
:100360008F5F8038C9F70E94D2022E833F8348876F
:1003700059876A878E859F85DC0188899989FC0168
:10038000822D01900D928150E1F789819A81009729
:1003900031F681E00E9457009C878B8782E00E94A3
:1003A00057008F3F910509F020F43324689433F807
:1003B00011C022E08030920720F43324689432F890
:1003C00009C08050934018F03324339403C0332481
:1003D000689431F80F2EFEEFEF2EF2E0FF2EF02D95
:1003E0000FE710E0A32CBB24CC24DD24702E4801A1
:1003F000F201E00FF11F6080662071F0F7012081AB
:10040000318142815381C601B5010E947503605D4F
:1004100077408040904050F4015010408CEF9FEFA7
:10042000E80EF91E9FEF0E3F190701F7EB85FC85DB
:100430003B9710F480E006C07720872D8095881FB9
:100440008827881F8093840480918404882309F47A
:1004500052CFC401880F991F880F991FE2E0F1E085
:10046000E80FF91F632D70E080E090E0208131817A
:10047000428153810E9475037093010160930001D2
:100480006B857C856A50704080E090E028EC30E01D
:1004900040E050E00E947503262D30E0220F331F0C
:1004A000E2E0F3E0E20FF31F2081318140E050E011
:1004B0000E9475032BE030ED4FE050E00E94940362
:1004C000309386042093850426E0EFE6F0E0208355
:1004D00012CF86E08AB928EE33E040E951E0CA0144
:1004E0000197F1F721503040D1F7309B08C0EBE283
:1004F000F0E08081846080830E943A0102C00E9403
:10050000690080E090E008951092C5008FE180932B
:10051000C400E0ECF0E080818D7F808386E08093F2
:10052000C20080E98093C100E3E5F0E08081817F33
:100530008083789408951F920F920FB60F92112422
:100540008F939F93EF93FF93809187059091C600BF
:10055000E7E8F4E0E80FF11D90838F5F8093870553
:10056000FF91EF919F918F910F900FBE0F901F9071
:10057000189590918805E7E8F4E0E90FF11D808176
:100580009F5F90938805089580918805E7E8F4E0DF
:10059000E80FF11D8081089580918705909188056D
:1005A000891B08950F931F93DF93CF9300D000D042
:1005B0000F92CDB7DEB70E94CC02182F882309F422
:1005C00080C00E94C402082F88230CF44BC04091C5
:1005D0000204842F8058803170F4123008F471C006
:1005E000042F0F700E94B902182F0E94B902682FC1
:1005F00026E030E068C0842F8059803170F41230DA
:1006000008F45FC0042F0F700E94B902182F0E94D7
:10061000B902682F25E030E056C0842F805B80311E
:10062000E0F4042F0F700E94B902182F0E94B90243
:10063000682F183731F4882309F043C027E030E0F1
:1006400042C0193719F429E030E03DC0812F8B57A3
:100650008530B8F528E030E036C00E94B90222E0CB
:1006600030E031C080910204805B803128F40E9428
:10067000B902809302049FCF802F8058803728F4DE
:100680000E94B9028093020496CF802F805F883049
:1006900038F40E94B9028093020422E030E013C0D3
:1006A000083F78F00E94B9020C3F19F423E030E0D3
:1006B0000AC00F3F19F022E030E005C024E030E02E
:1006C00002C020E030E03A8329833A81402F512F45
:1006D00070E080E090E00F900F900F900F900F90DF
:1006E000CF91DF911F910F910895629FD001739F69
:1006F000F001829FE00DF11D649FE00DF11D929FBE
:10070000F00D839FF00D749FF00D659FF00D9927FC
:10071000729FB00DE11DF91F639FB00DE11DF91F20
:10072000BD01CF0111240895A1E21A2EAA1BBB1B03
:10073000FD010DC0AA1FBB1FEE1FFF1FA217B307AD
:10074000E407F50720F0A21BB30BE40BF50B661FC3
:10075000771F881F991F1A9469F760957095809587
:1007600090959B01AC01BD01CF010895F894FFCF96
:10077000FFFFC8DD0100F7C20100A8A90100C49174
:100780000100377B0100EF650100D8510100E23E16
:100790000100FC2C0100171C0100250C010019FDB3
:1007A0000000E4EE00007CE10000D4D40000E2C8C8
:1007B00000009CBD0000F7B20000ECA80000719F93
:1007C00000007E9600000C8E0000138600008C7ED8
:1007D000000072770000BE7000006A6A0000716459
:1007E0000000CE5E00007C59000076540000B84F37
:1007F00000003F4B00000647000009430000463F51
:100800000000B93B00005F38000035350000383289
:100810000000672F0000BE2C00003B2A0000DC27F0
:1008200000009F2500008323000085210000A31FF6
:100830000000DD1D00002F1C00009A1A00001C198A
:100840000000B31700005F1600001D150000EE1336
:100850000000D0120000C1110000C2100000D20F31
:100860000000EE0E0000180E00004D0D00008E0C72
:100870000000DA0B00002F0B00008F0A0000F709C0
:10088000000068090000E108000061080000E907B5
:100890000000770700000C070000A70600004706CD
:1008A0000000ED0500009805000047050000FC046D
:1008B0000000B40400007004000031040000F403E0
:1008C0000000BC0300008603000053030000240363
:1008D0000000F6020000CC020000A40200007E022C
:1008E00000005A0200003802000018020000FA015D
:1008F0000000DE010000C3010000AA010000920117
:1009000000007B01000066010000520100003F0171
:1009100000002D0100001C0100000C010000FD0082
:100920000000EF000000E1000000D5000000C90059
:100930000000BE000000B3000000A90000009F00FE
:100940000000960000008E000000860000007F007E
:10095000000077000000710000006A0000006400E1
:1009600000005F000000590000005400000050002B
:10097000000000005B0080009D00B600CB00DE00A0
:10098000F000010110011F012D013A01470154013E
:1009900060016B01760181018C019601A001AA0121
:1009A000B301BD01C601CF01D801E001E901F101A8
:1009B000F901020209021102190221022802300281
:1009C00037023E0245024C0253025A02610268029B
:1009D0006E0275027B02820288028F0295029B02E0
:1009E000A102A702AD02B302B902BF02C502CB0247
:1009F000D102D602DC02E102E702ED02F202F702C6
:100A0000FD02020308030D03120317031D03220353
:100A100027032C03310336033B03400345034A03FA
:100A20004F03540358035D03620367036B037003B2
:100A3000750379037E03830387038C039003950377
:100A400099039E03A203A703AB03AF03B403B80348
:100A5000BC03C103C503C903CD03D203D603DA0324
:100A6000DE03E203E703EB03EF03F303F703FB0308
:040A7000FF03FF0081
:00000001FF
