:100000000C9475000C9492000C9492000C94920045
:100010000C9492000C9492000C9492000C94920018
:100020000C9492000C9492000C9492000C94880111
:100030000C946D010C9492000C9492000C9492001C
:100040000C9492000C9492000C9487030C949200F0
:100050000C9492000C9492000C9492000C949200D8
:100060000C9492000C94920007634236B79BD8A779
:100070001A39685618AEBAAB558C1D3CB7CC5763CD
:10008000BD6DEDFD753EF6177231BF000000803F7B
:1000900008000000BE922449123EABAAAA2ABECD97
:1000A000CCCC4C3E00000080BEABAAAAAA3E000009
:1000B0000000BF000000803F000000000008417801
:1000C000D3BB4387D1133D190E3CC3BD4282AD2B38
:1000D0003E68EC8276BED98FE1A93E4C80EFFFBE30
:1000E00001C4FF7F3F000000000011241FBECFEFBE
:1000F000D8E0DEBFCDBF12E0A0E0B1E0ECEAFCE169
:1001000002C005900D92AA30B107D9F713E0AAE01A
:10011000B2E001C01D92A139B107E1F70E94550379
:100120000C94540E0C94000087E880937A00089594
:10013000806480937C00EAE7F0E0808180648083C3
:10014000808186FDFDCF2091780030917900822F4B
:10015000932F08952F923F924F925F926F927F92CA
:100160008F929F92AF92BF92CF92DF92EF92FF92C7
:100170000F931F93CF93DF930E949400F8941092F3
:1001800080008BE0809381001092850010928400A3
:100190007894E3E5F0E08081817F808328EE33E08E
:1001A0000F2EF0E9CF2EF1E0DF2EF02D33240F2EAD
:1001B000F8E8EF2EFF24F02D0F2EFAE86F2E7724AB
:1001C000F02D0F2EFFE64F2E5524F02D0F2EF6E0CA
:1001D0002F2EF02D0F2EF4E8AF2EBB24F02D0F2E76
:1001E000FBE28F2E9924F02D08EE13E007C0C60124
:1001F0000197F1F72150304001C0980121153105D8
:10020000B1F781E00E949800EC0182E00E94980022
:10021000BC01832DC333D10508F081E080938E02A9
:1002200080918E02882349F381E080938E0280E0E2
:1002300090E00E94EF0820E030EC4FE754E40E9489
:10024000310720E030E04AEF53E40E9437069B017B
:10025000AC0160E074E284E798E40E94310720E09A
:1002600030E040E85FE30E94D9050E946104F70195
:1002700071836083BE016253704080E090E00E9411
:10028000EF0820E030E443E754E40E94310720E027
:1002900030E048E453E40E94370620E030E040E8D4
:1002A0005EE30E9437060E946104F301718360835C
:1002B000F2012082F50120813181F7018081918155
:1002C0008217930708F099CFF50111821082F4018B
:1002D000808182608083980191CF1F920F920FB628
:1002E0000F9211248F93EF93FF93EBE2F0E0808164
:1002F0008D7F808380918E02882311F410926F008D
:10030000FF91EF918F910F900FBE0F901F90189556
:100310001F920F920FB60F9211248F93EF93FF93BA
:10032000EBE2F0E0808182608083FF91EF918F911A
:100330000F900FBE0F901F9018952F923F924F92E3
:100340005F926F927F928F929F92AF92BF92CF9265
:10035000DF92EF92FF920F931F93DF93CF93CDB76E
:10036000DEB72E970FB6F894DEBF0FBECDBF0E944A
:1003700094000E947003F894109280008BE08093A8
:10038000810010928500109284007894E3E5F0E0FB
:100390008081817F80830F2EFAE08F2EF2E09F2EE6
:1003A000F02D1D86CE010196482E392ECE010696DF
:1003B000282E9E870F2EF5E05F2EF02D0E94BE03A3
:1003C0002E833F83488759876A87DE011196FE0195
:1003D000369685E001900D928150E1F789819A81EE
:1003E000009709F441C08530910561F08630910590
:1003F0001CF4039714F119C08630910569F00A972F
:10040000E4F413C08B818823C1F48C81F401E80FDC
:10041000F11D8D81808311C08B81882371F48C81C3
:10042000F401E80FF11D108208C08D85F401E80F7A
:10043000F11D10828F5F8038C9F70E94BE032E83A2
:100440003F83488759876A87842D932DDC01822D4D
:100450009E85FC01852D01900D928150E1F78981E7
:100460009A81009709F0BFCF81E00E9498009C8795
:100470008B8782E00E9498008F3F910509F030F44D
:100480000F2EF7E36F2E7724F02D19C022E0803075
:10049000920730F40F2EFEE66F2E7724F02D0FC05A
:1004A0008050934038F00F2EF8EB6F2EF1E07F2E46
:1004B000F02D05C00F2EFCED6F2E7724F02DE9E80E
:1004C000F2E0B080BB2039F02FE70F2EFFE7CF2EF0
:1004D000DD24F02D0FC08EE790E0282F6C01F40191
:1004E000E80FF91FB080BB2029F40197FFEF8E3F82
:1004F0009F0799F78B859C85C39708F441C02223F9
:100500000CF43EC0B60165547040882777FD809595
:10051000982F0E943D0820E030E040E451E40E9422
:1005200031079B01AC0160E070E080E090E40E9444
:10053000940BE62EF72E082F192FAA24B301882733
:1005400077FD8095982F0E943D089B01AC01C80162
:10055000B7010E94370620E030E040E85FE30E94E8
:10056000D90520E030E04AEF53E40E940D08181648
:1005700014F0AA24A394AA2021F0AA24A39401C0D1
:10058000AA24A0928E0280918E02882309F416CFAD
:10059000B60165547040882777FD8095982F0E949A
:1005A0003D0820E030E040E451E40E9431079B0127
:1005B000AC0160E070E080E090E40E94940BE62ED5
:1005C000F72E082F192FB301882777FD8095982FD4
:1005D0000E943D089B01AC01C801B7010E9437068B
:1005E0009B01AC0160E074E284E798E40E9431076B
:1005F00020E030E040E85FE30E94D9050E946104FA
:10060000E8E8F0E0718360836B2D70E0882777FD68
:100610008095982F0E943D0820E030E04EEF52E494
:100620000E9431070E94E40B20E030E048E453E4EC
:100630000E9437067B018C012B853C85B90180E047
:1006400090E00E94EF089B01AC01C801B7010E9435
:10065000370620E030E443E754E40E94310720E00D
:1006600030E040E85EE30E9437060E946104EAE859
:10067000F0E07183608326E0EFE6F0E02083E4E8B9
:10068000F0E020813181E8E8F0E0808191818217FB
:10069000930708F093CEE4E8F0E011821082EBE2D9
:1006A000F0E080818260808389CE86E08AB928EE7E
:1006B00033E040E951E0CA010197F1F721503040A1
:1006C000D1F7309B08C0EBE2F0E08081846080834A
:1006D0000E949D0102C00E94AA0080E090E008955F
:1006E0001092C5008FE18093C400E0ECF0E08081BF
:1006F0008D7F808386E08093C20080E98093C10073
:10070000E3E5F0E08081817F8083789408951F92F3
:100710000F920FB60F9211248F939F93EF93FF9335
:1007200080918F039091C600EFE8F2E0E80FF11D91
:1007300090838F5F80938F03FF91EF919F918F91B3
:100740000F900FBE0F901F90189590919003EFE8B7
:10075000F2E0E90FF11D80819F5F9093900308956F
:1007600080919003EFE8F2E0E80FF11D8081089599
:1007700080918F0390919003891B08950F931F938D
:10078000DF93CF9300D000D00F92CDB7DEB70E9499
:10079000B803182F882309F480C00E94B003082FE3
:1007A00088230CF44BC040910001842F8058803185
:1007B00070F4123008F471C0042F0F700E94A5036A
:1007C000182F0E94A503682F26E030E068C0842F10
:1007D0008059803170F4123008F45FC0042F0F701C
:1007E0000E94A503182F0E94A503682F25E030E082
:1007F00056C0842F805B8031E0F4042F0F700E947C
:10080000A503182F0E94A503682F183731F48823F9
:1008100009F043C027E030E042C0193719F429E05D
:1008200030E03DC0812F8B578530B8F528E030E0AF
:1008300036C00E94A50322E030E031C08091000163
:10084000805B803128F40E94A503809300019FCF34
:10085000802F8058803728F40E94A50380930001E0
:1008600096CF802F805F883038F40E94A503809354
:10087000000122E030E013C0083F78F00E94A50399
:100880000C3F19F423E030E00AC00F3F19F022E0DA
:1008900030E005C024E030E002C020E030E03A83E0
:1008A00029833A81402F512F70E080E090E00F9033
:1008B0000F900F900F900F90CF91DF911F910F919C
:1008C0000895EF92FF920F931F937B018C0120E01C
:1008D00030E040E05FE40E94DD0788238CF0C8012F
:1008E000B70120E030E040E05FE40E94D9050E94BB
:1008F0009B089B01AC01205030404040504806C04E
:10090000C801B7010E949B089B01AC01B901CA0153
:100910001F910F91FF90EF900895A0E0B0E0E3E900
:10092000F4E00C945D0BDC012B01FA019C919230F8
:1009300008F439C1EB018881823008F433C1943066
:1009400069F4843009F02FC111969C911197898127
:10095000981709F428C1A1E0B1E025C1843009F459
:1009600021C18230A9F4923009F01DC19A01AD0174
:1009700088E0EA010990AE01E90109929E018150E7
:10098000C1F7E201898111969C918923818308C175
:10099000923009F407C112962D903C901397EB0109
:1009A0008A819B811496AD90BD90CD90DC90179775
:1009B000EC80FD800E811F819101281B390BB9014C
:1009C00037FF04C066277727621B730B60327105FF
:1009D0000CF061C0121613066CF537014801062EA3
:1009E00004C096948794779467940A94D2F721E090
:1009F00030E040E050E004C0220F331F441F551F79
:100A00006A95D2F721503040404050402E213F217E
:100A100040235123211531054105510521F021E0E5
:100A200030E040E050E079018A01E628F728082903
:100A300019293CC0232BD1F1260E371E3501460162
:100A4000062E04C096948794779467940A94D2F7FC
:100A500021E030E040E050E004C0220F331F441F8B
:100A6000551F6A95D2F721503040404050402A210E
:100A70003B214C215D21211531054105510521F016
:100A800021E030E040E050E059016A01A628B72893
:100A9000C828D9280BC0821593052CF01C01AA2464
:100AA000BB24650103C0EE24FF24870111969C91AD
:100AB000D20111968C91981709F445C0992339F009
:100AC000A80197012A193B094C095D0906C0A60136
:100AD00095012E193F09400B510B57FD08C011829B
:100AE0003382228224833583468357831DC081E06D
:100AF00081833382228288279927DC01821B930B12
:100B0000A40BB50B84839583A683B7830DC0220FF6
:100B1000331F441F551F24833583468357838281A7
:100B20009381019793838283248135814681578104
:100B3000DA01C9010197A109B1098F5F9F4FAF4F3A
:100B4000BF4328F30BC0918333822282EA0CFB1C43
:100B50000C1D1D1DE482F5820683178383E08083CC
:100B6000248135814681578157FF1AC0C901AA27C0
:100B700097FDA095BA2F81709070A070B0705695B7
:100B8000479537952795822B932BA42BB52B8483E0
:100B90009583A683B7838281938101969383828311
:100BA000DF0101C0D201CD01CDB7DEB7E2E10C9487
:100BB000790BA0E2B0E0EFEDF5E00C94690B6983EE
:100BC0007A838B839C832D833E834F835887E9E010
:100BD000EE2EF12CEC0EFD1ECE010196B7010E9407
:100BE0008C0A8E010F5E1F4FCE010596B8010E9440
:100BF0008C0A8A8991E089278A8BC701B801AE01E6
:100C0000475E5F4F0E948D040E94B709A096E6E000
:100C10000C94850BA0E2B0E0E0E1F6E00C94690BE7
:100C200069837A838B839C832D833E834F8358878C
:100C3000F9E0EF2EF12CEC0EFD1ECE010196B7016E
:100C40000E948C0A8E010F5E1F4FCE010596B801DF
:100C50000E948C0AC701B801AE01475E5F4F0E9437
:100C60008D040E94B709A096E6E00C94850BA0E2E3
:100C7000B0E0EDE3F6E00C945D0B69837A838B833F
:100C80009C832D833E834F835887CE010196BE01FE
:100C9000675F7F4F0E948C0ACE010596BE016F5E92
:100CA0007F4F0E948C0A9985923088F08989823022
:100CB000C8F0943019F4823051F404C0843029F41F
:100CC000923081F481E091E0C6C0923049F420E096
:100CD0009A858A89981321E02A87CE010996BBC09C
:100CE000823049F420E09A858A89981321E02A8B82
:100CF000CE014196B0C02D843E844F8458886D88C3
:100D00007E888F88988CEE24FF248701AA24BB2438
:100D1000650140E050E060E070E0E0E0F0E0C1013B
:100D200081709070892BE9F0E60CF71C081D191DE5
:100D30009A01AB012A0D3B1D4C1D5D1D80E090E02A
:100D4000A0E0B0E0E614F7040805190520F481E0FE
:100D500090E0A0E0B0E0BA01A901480F591F6A1F56
:100D60007B1FAA0CBB1CCC1CDD1C97FE08C081E0BD
:100D700090E0A0E0B0E0A82AB92ACA2ADB2A31967E
:100D8000E032F10549F0660C771C881C991C5694DA
:100D9000479437942794C3CFFA85EA892B893C89F5
:100DA0008B859C85280F391F2E5F3F4F17C0CA01C6
:100DB00081709070892B61F016950795F794E794F0
:100DC00080E090E0A0E0B0E8E82AF92A0A2B1B2B8B
:100DD00076956795579547952F5F3F4F77FDE7CFFE
:100DE0000CC0440F551F661F771F17FD4160EE0CA6
:100DF000FF1C001F111F21503040403090E0590768
:100E000090E0690790E4790760F32B8F3C8FDB015A
:100E1000CA018F779070A070B07080349105A105E1
:100E2000B10561F447FD0AC0E114F10401051105A3
:100E300029F0405C5F4F6F4F7F4F40781A8EFE174E
:100E400011F081E08A8F4D8F5E8F6F8F78A383E0E2
:100E5000898FCE0149960E94B709A096E2E10C94D1
:100E6000790BA8E1B0E0E7E3F7E00C94650B698348
:100E70007A838B839C832D833E834F835887B9E08D
:100E8000EB2EF12CEC0EFD1ECE010196B7010E9457
:100E90008C0A8E010F5E1F4FCE010596B8010E948D
:100EA0008C0A2985223008F47EC03989323010F44A
:100EB000B8017CC08A859A8989278A87243011F0F5
:100EC000223031F4231709F06EC061E071E06EC08A
:100ED000343039F41D861E861F86188A1C861B86B0
:100EE00004C0323021F484E08987B7015FC02B85CC
:100EF0003C858B899C89281B390B3C872B87ED848B
:100F0000FE840F851889AD88BE88CF88D88CEA14F6
:100F1000FB040C051D0540F4EE0CFF1C001F111F07
:100F2000215030403C872B8720E030E040E050E00B
:100F300080E090E0A0E0B0E460E070E0EA14FB0440
:100F40000C051D0540F0282B392B4A2B5B2BEA188A
:100F5000FB080C091D09B695A79597958795EE0C8A
:100F6000FF1C001F111F6F5F7F4F6F31710531F73D
:100F7000DA01C9018F779070A070B070803491054C
:100F8000A105B10561F427FD0AC0E114F1040105D2
:100F9000110529F0205C3F4F4F4F5F4F20782D8780
:100FA0003E874F87588BBE01675F7F4FCB010E9402
:100FB000B7096896EAE00C94810BA8E1B0E0E3EE93
:100FC000F7E00C94690B69837A838B839C832D8370
:100FD0003E834F83588789E0E82EF12CEC0EFD1EEE
:100FE000CE010196B7010E948C0A8E010F5E1F4F41
:100FF000CE010596B8010E948C0A8985823040F0A6
:101000008989823028F0C701B8010E94040B01C011
:101010008FEF6896E6E00C94850BA8E1B0E0E3E181
:10102000F8E00C94690B69837A838B839C832D830E
:101030003E834F83588789E0E82EF12CEC0EFD1E8D
:10104000CE010196B7010E948C0A8E010F5E1F4FE0
:10105000CE010596B8010E948C0A8985823040F045
:101060008989823028F0C701B8010E94040B01C0B1
:1010700081E06896E6E00C94850BA8E0B0E0E3E43C
:10108000F8E00C94660B9B01AC0183E08983DA01E4
:10109000C9018827B7FD83959927AA27BB27B82EB2
:1010A000211531054105510519F482E089833AC0C3
:1010B0008823A9F0203080E0380780E0480780E8E6
:1010C000580729F460E070E080E09FEC30C0EE2427
:1010D000FF248701E21AF30A040B150B02C0790101
:1010E0008A018EE1C82ED12CDC82CB82ED82FE8279
:1010F0000F831887C801B7010E9468090197181665
:10110000190684F4082E04C0EE0CFF1C001F111FEA
:101110000A94D2F7ED82FE820F831887C81AD90A83
:10112000DC82CB82BA82CE0101960E94B709289652
:10113000E9E00C94820BACE0B0E0E1EAF8E00C945A
:101140006D0B69837A838B839C83CE010196BE01EC
:101150006B5F7F4F0E948C0A8D81823061F18230FB
:1011600050F1843021F48E81882351F12EC02F81DB
:10117000388537FD20C06E812F3131051CF0662384
:10118000F9F023C08EE190E0821B930B29853A850C
:101190004B855C8504C056954795379527958A956C
:1011A000D2F76623B1F050954095309521953F4F89
:1011B0004F4F5F4F0EC020E030E040E050E009C0EC
:1011C0002FEF3FEF4FEF5FE704C020E030E040E05B
:1011D00050E8B901CA012C96E2E00C94890BA8E012
:1011E000B0E0E5EFF8E00C94650B7B018C01611534
:1011F00071058105910519F482E0898360C083E05F
:1012000089838EE1C82ED12CDC82CB82ED82FE82D6
:101210000F831887C801B7010E946809FC01319744
:10122000F7FF3BC0222733272E1B3F0B57016801D6
:10123000022E04C0D694C794B794A7940A94D2F708
:1012400040E050E060E070E081E090E0A0E0B0E0DD
:1012500004C0880F991FAA1FBB1F2A95D2F70197B8
:10126000A109B1098E219F21A023B1230097A105D7
:10127000B10521F041E050E060E070E04A295B29CF
:101280006C297D294D835E836F8378878EE190E0A2
:101290008E1B9F0B9C838B8312C0309781F00E2E88
:1012A00004C0EE0CFF1C001F111F0A94D2F7ED8240
:1012B000FE820F831887CE1ADF0ADC82CB821A8265
:1012C000CE0101960E94B7092896EAE00C94810BA2
:1012D000EF92FF920F931F937B018C0180E0E81641
:1012E00080E0F80681E0080780E0180788F48FEFB7
:1012F000E816F1040105110531F028F088E090E0CE
:10130000A0E0B0E017C080E090E0A0E0B0E012C044
:1013100080E0E81680E0F80680E0080781E0180722
:1013200028F088E190E0A0E0B0E004C080E190E027
:10133000A0E0B0E020E230E040E050E0281B390BB4
:101340004A0B5B0B04C016950795F794E7948A95B2
:10135000D2F7F701E75FFE4F8081281B3109410971
:101360005109C9011F910F91FF90EF900895DF92ED
:10137000EF92FF920F931F93FC01E480F5800681AA
:101380001781D1808081823048F480E090E0A0E134
:10139000B0E0E82AF92A0A2B1B2BA5C0843009F4F7
:1013A0009FC0823021F4EE24FF24870105C0E114A0
:1013B000F1040105110519F4E0E0F0E096C0628146
:1013C00073819FEF623879070CF05BC022E83FEF32
:1013D000261B370B2A3131052CF020E030E040E0AD
:1013E00050E02AC0B801A701022E04C07695679587
:1013F000579547950A94D2F781E090E0A0E0B0E0DD
:1014000004C0880F991FAA1FBB1F2A95D2F7019706
:10141000A109B1098E219F21A023B1230097A10525
:10142000B10521F081E090E0A0E0B0E09A01AB01CD
:10143000282B392B4A2B5B2BDA01C9018F7790704F
:10144000A070B07080349105A105B10539F427FF73
:1014500009C0205C3F4F4F4F5F4F04C0215C3F4F9E
:101460004F4F5F4FE0E0F0E02030A0E03A07A0E00F
:101470004A07A0E45A0710F0E1E0F0E079018A01A0
:1014800027C06038710564F5FB01E158FF4FD801B2
:10149000C7018F779070A070B07080349105A1055E
:1014A000B10539F4E7FE0DC080E490E0A0E0B0E0C3
:1014B00004C08FE390E0A0E0B0E0E80EF91E0A1F40
:1014C0001B1F17FF05C016950795F794E7943196F3
:1014D00087E016950795F794E7948A95D1F705C0AC
:1014E000EE24FF248701EFEFF0E06E2F679566276B
:1014F0006795902F9F77D794DD24D7948E2F86956C
:10150000492F462B582F5D29B701CA011F910F9112
:10151000FF90EF90DF900895FC01DB014081518145
:101520002281622F6F7770E0221F2227221F938172
:10153000892F880F822B282F30E0991F9927991F18
:1015400011969C93119721153105A9F54115510567
:101550006105710511F482E037C082E89FEF1396B0
:101560009C938E9312979A01AB0167E0220F331F71
:10157000441F551F6A95D1F783E08C930DC0220F4D
:10158000331F441F551F12968D919C9113970197FD
:1015900013969C938E931297203080E0380780E05A
:1015A000480780E4580758F314962D933D934D93C4
:1015B0005C93179708952F3F310579F44115510534
:1015C0006105710519F484E08C93089564FF03C0EC
:1015D00081E08C9312C01C9210C02F57304013969C
:1015E0003C932E93129783E08C9387E0440F551F12
:1015F000661F771F8A95D1F7706414964D935D939B
:101600006D937C93179708951F93DC01FB019C91C8
:10161000923008F447C08081823008F443C094308F
:1016200051F411961C91843099F58181682F70E0F6
:10163000611B71093FC0843021F0923031F4823057
:10164000B9F18181882389F12DC011961C911197E0
:101650008230F1F081811817D9F412962D913C91C6
:101660001397828193818217930794F02817390783
:10167000BCF014968D919D910D90BC91A02D24816C
:10168000358146815781281739074A075B0718F4C7
:10169000112341F00AC082179307A407B50740F44D
:1016A000112319F061E070E005C06FEF7FEF02C019
:1016B00060E070E0CB011F9108952F923F924F920E
:1016C0005F926F927F928F929F92AF92BF92CF92D2
:1016D000DF92EF92FF920F931F93CF93DF93CDB7DB
:1016E000DEB7CA1BDB0B0FB6F894DEBF0FBECDBF53
:1016F00009942A88398848885F846E847D848C8424
:101700009B84AA84B984C884DF80EE80FD800C812C
:101710001B81AA81B981CE0FD11D0FB6F894DEBF0F
:101720000FBECDBFED010895FA01EE0FFF1F3096F9
:101730002105310599F16115710561F48038BFE328
:101740009B0749F168949038810561F08038BFEFBC
:101750009B0741F0992342F5FF3FE1053105210543
:1017600011F1E8940894E795D901AA2329F4AB2F45
:10177000BE2FF85FD0F310C0FF5F70F4A695E0F7BE
:10178000F73950F019F0FF3A38F49F779F930CD057
:101790000F9007FC905808953EF099C060E070E00B
:1017A00080E89FE308954FE79F775F934F933F93C0
:1017B0002F9327D12F913F914F915F9158DA47C0D6
:1017C00011F40EF484C075C0B9D0D0F39923D9F3C5
:1017D000CEF39F57550B87FF7DD00024A0E640EA4B
:1017E000900180585695979528F4805C660F771F76
:1017F000881F20F026173707480730F4621B730B49
:10180000840B202931294A2BA6951794079420256B
:1018100031254A2758F7660F771F881F20F02617B3
:101820003707480730F4620B730B840B200D311D12
:10183000411DA09581F7B901842F9158880F969585
:101840008795089519F40EF02EC092C040C076D04E
:10185000C8F39638C0F707F80F92E8942BE33AEAFA
:1018600048EB5FE74DD10F920F920F924DB75EB7E5
:101870000F9207D1E8E6F0E034D04F915F91EF91FD
:10188000FF91E595EE1FFF1F49F0FE57E0684427E2
:10189000EE0F441FFA95E1F74195550B79D00F9063
:1018A00007FE6DC0089597F99F6780E870E060E0DB
:1018B00008959F3F31F0915020F487957795679573
:1018C000B795880F911D9695879597F908959FEF85
:1018D00080EC089591505040660F771F881FD2F713
:1018E0000895DF93CF931F930F93FF92EF92DF92B0
:1018F0007B018C01689405C0DA2EEF01FFD0FE0158
:10190000E894A5912591359145915591AEF3EF015C
:1019100059D1FE019701A801DA9479F7DF90EF9091
:10192000FF900F911F91CF91DF91089557FD90582F
:10193000440F551F59F05F3F71F04795880F97FB93
:10194000991F61F09F3F79F087950895121613064D
:101950001406551FF2CF4695F1DF08C0161617067C
:101960001806991FF1CF86957105610508940895B1
:10197000E894BB2766277727CB0197F908959B0149
:10198000AC0160E070E080E89FE36BCA8CCF91CF40
:10199000D5DFE8F39923D9F3940F511DBBF3915090
:1019A000504094F059F0882332F0660F771F881F5B
:1019B00091505040C1F79E3F510544F7880F911D4B
:1019C0009695879597F908955F3FACF0983E9CF007
:1019D000BB27869577956795B79508F4B160939581
:1019E000C1F7BB0F58F711F460FFE8CF6F5F7F4F6F
:1019F0008F4F9F4FE3CFBDCF0EF05BCF68CF689482
:101A000052CF9CDFC8F39923D1F3C6F3DF93CF9372
:101A10001F930F93FF92C92FDD2788232AF0219768
:101A2000660F771F881FDAF720E030E040E85FEBB1
:101A30009FE3883920F0803E30F021968F77EAD8F6
:101A4000E0E9F0E003C0E6D8EDEBF0E04ADF8B011F
:101A5000BE01EC01FB2E6F5771097595771F880B3E
:101A6000990B0BDB28E132E741E35FE347D0AF2D71
:101A70009801AE01FF900F911F91CF91DF91A2D0FD
:101A800002C1FA01DC01AA0FBB1F9B01AC01BF57C9
:101A900028F422273327442750781FC0B75188F4F1
:101AA000AB2F0024469537952795011CA395D2F3BB
:101AB000002069F0220F331F441FB395DAF30DD0D5
:101AC00078C861307105A0E88A07B94630F49B01F7
:101AD000AC016627772788279078309621F02083FD
:101AE0003183428353830895C0D028F0C5D018F0C5
:101AF000952309F0D8CEEBCE11243BCF17DFA0F30E
:101B0000959FD1F3950F50E0551F629FF001729F92
:101B1000BB27F00DB11D639FAA27F00DB11DAA1FB1
:101B2000649F6627B00DA11D661F829F2227B00DFE
:101B3000A11D621F739FB00DA11D621F839FA00D89
:101B4000611D221F749F3327A00D611D231F849FD9
:101B5000600D211D822F762F6A2F11249F57504030
:101B60008AF0E1F088234AF0EE0FFF1FBB1F661FCB
:101B7000771F881F91505040A9F79E3F510570F084
:101B800092CEF7CE5F3FECF3983EDCF386957795E7
:101B90006795B795F795E7959F5FC1F7FE2B880F7F
:101BA000911D9695879597F908955FD030F064D090
:101BB00020F031F49F3F11F41EF489CE0EF4E0952D
:101BC000E7FB71CEE92FB2DE80F3BA176207730725
:101BD0008407950718F071F49EF5CACE0EF4E095CF
:101BE0000B2EBA2FA02D0B01B90190010C01CA01D7
:101BF000A0011124FF27591B99F0593F50F4503E82
:101C000068F11A16F040A22F232F342F4427585F73
:101C1000F3CF469537952795A795F0405395C9F78B
:101C20007EF41F16BA0B620B730B840BBAF0915043
:101C3000A1F0FF0FBB1F661F771F881FC2F70EC0E2
:101C4000BA0F621F731F841F48F4879577956795B5
:101C5000B795F7959E3F08F0B3CF9395880F08F09E
:101C60009927EE0F97958795089500240A941616E4
:101C7000170618060906089500240A94121613067A
:101C8000140605060895092E0394000C11F4882308
:101C900052F0BB0F40F4BF2B11F460FF04C06F5F24
:0C1CA0007F4F8F4F9F4F0895F894FFCFA7
:101CAC00FF0000000000000000000102020303031B
:101CBC0003040404040404040405050505050505D2
:101CCC0005050505050505050506060606060606B1
:101CDC000606060606060606060606060606060698
:101CEC000606060606060606060707070707070781
:101CFC000707070707070707070707070707070768
:101D0C000707070707070707070707070707070757
:101D1C000707070707070707070707070707070747
:101D2C000707070707070707070808080808080830
:101D3C000808080808080808080808080808080817
:101D4C000808080808080808080808080808080807
:101D5C0008080808080808080808080808080808F7
:101D6C0008080808080808080808080808080808E7
:101D7C0008080808080808080808080808080808D7
:101D8C0008080808080808080808080808080808C7
:101D9C0008080808080808080808080808080808B7
:0A1DAC0008080808080808080800E5
:00000001FF
