:100000000C9434000C9451000C9451000C94510049
:100010000C9451000C9451000C9451000C9451001C
:100020000C9451000C9451000C9451000C941D033D
:100030000C9488030C9451000C9451000C945100C2
:100040000C9451000C9451000C94F9010C94510043
:100050000C9451000C9451000C9451000C945100DC
:100060000C9451000C94510011241FBECFEFD8E026
:10007000DEBFCDBF14E0A0E0B1E0E4EDF7E002C0E8
:1000800005900D92A430B107D9F715E0A4E0B4E0D3
:1000900001C01D92A639B107E1F70E94CD010C9471
:1000A000E8030C94000087E880937A000895806448
:1000B00080937C00EAE7F0E0808180648083808127
:1000C00086FDFDCF2091780030917900822F932F0B
:1000D0000895AF92BF92CF92DF92EF92FF920F936B
:1000E0001F93CF93DF930E94530081E00E94D302BD
:1000F000C0E4DCE9CE010197F1F781E00E945700EE
:100100007C0182E00E9457009C0140E050E02E5F9D
:100110003F4F4F4F5F4F60ED77E48FE190E00E94DB
:10012000C60359016A0100E010E0C801B70128ECDC
:1001300030E040E050E00E94A7032FEF33E040E0C2
:1001400050E00E94C603C601B501A9010E94FF024A
:10015000D1CF2F923F924F925F926F927F928F9268
:100160009F92AF92BF92CF92DF92EF92FF920F9346
:100170001F93DF93CF93CDB7DEB761970FB6F89497
:10018000DEBF0FBECDBF0E94530081E00E94D302AC
:100190000E94E2010F2EF4E04F2EF4E05F2EF02DCE
:1001A0001D86CE0101968E879F87CE010696888B8D
:1001B000998B0F2EF5E02F2EF02D0E9430022E830A
:1001C0003F83488759876A87DE011196FE0136967C
:1001D00085E001900D928150E1F789819A81009725
:1001E000D1F18530910561F0863091051CF40397BB
:1001F000E4F013C08630910551F00A97B4F40DC0B5
:100200008C81F201E80FF11D8D8180830EC08C81FD
:10021000F201E80FF11D108208C08D85F201E80F90
:10022000F11D10828F5F8038C9F70E9430022E8343
:100230003F83488759876A878E859F85DC01888937
:100240009989FC01822D01900D928150E1F78981FD
:100250009A81009731F681E00E9457009C878B8736
:1002600082E00E9457008F3F910509F020F433246B
:10027000689433F811C022E08030920720F43324D0
:10028000689432F809C08050934018F033243394B6
:1002900003C03324689431F80F2EFEEFEF2EF2E006
:1002A000FF2EF02D0FE710E0A32CBB24CC24DD247F
:1002B000602E4801F201E00FF11F7080772071F08D
:1002C000F7012081318142815381C601B5010E942D
:1002D000A703605D77408040904050F4015010408B
:1002E0002CEF3FEFE20EF31E3FEF0E3F130701F737
:1002F0008B859C85892B11F480E006C06620862DB5
:100300008095881F8827881F8093840480918404A7
:100310008823D1F1C401880F991F880F991FE2E04B
:10032000F1E0E80FF91F632D70E080E090E020819C
:100330003181428153810E94A7037B018C01EB85AF
:10034000FC85BF0180E090E028EC30E040E050E028
:100350000E94A703272D30E0220F331FE2E0F3E0D5
:10036000E20FF31F2081318140E050E00E94A7039B
:1003700021E038EF4FE050E00E94C603C801B7010A
:10038000A9010E94FF0219CF68EE73E080E090E0BF
:1003900040E050E00E94FF0210CF86E08AB980E47E
:1003A0009CE90197F1F7309B08C0EBE2F0E0808117
:1003B000846080830E94A90002C00E94690080E0DE
:1003C00090E008951092C5008FE18093C400E0ECA6
:1003D000F0E080818D7F808386E08093C20080E999
:1003E0008093C100E3E5F0E08081817F8083789491
:1003F00008951F920F920FB60F9211248F939F931F
:10040000EF93FF93809187059091C600E7E8F4E0B1
:10041000E80FF11D90838F5F80938705FF91EF9127
:100420009F918F910F900FBE0F901F9018959091F4
:100430008805E7E8F4E0E90FF11D80819F5F909364
:100440008805089580918805E7E8F4E0E80FF11D3C
:10045000808108958091870590918805891B089572
:100460000F931F93DF93CF9300D000D00F92CDB79F
:10047000DEB70E942A02182F882309F480C00E9448
:100480002202082F88230CF44BC040910204842FD1
:100490008058803170F4123008F471C0042F0F704E
:1004A0000E941702182F0E941702682F26E030E0E2
:1004B00068C0842F8059803170F4123008F45FC016
:1004C000042F0F700E941702182F0E941702682F26
:1004D00025E030E056C0842F805B8031E0F4042FAB
:1004E0000F700E941702182F0E941702682F1837EA
:1004F00031F4882309F043C027E030E042C01937C7
:1005000019F429E030E03DC0812F8B578530B8F5D4
:1005100028E030E036C00E94170222E030E031C00F
:1005200080910204805B803128F40E94170280933E
:1005300002049FCF802F8058803728F40E94170232
:100540008093020496CF802F805F883038F40E9419
:1005500017028093020422E030E013C0083F78F0D5
:100560000E9417020C3F19F423E030E00AC00F3F4D
:1005700019F022E030E005C024E030E002C020E0C5
:1005800030E03A8329833A81402F512F70E080E098
:1005900090E00F900F900F900F900F90CF91DF9100
:1005A0001F910F91089580938905F894109280000F
:1005B0008AE080938100109285001092840080ED83
:1005C00097E0909389008093880010928B0010929E
:1005D0008A0086E080936F007894E3E5F0E0808104
:1005E000817F80838FEF9FEFA0E0B0E080938A054A
:1005F00090938B05A0938C05B0938D050895660F9D
:10060000771F881F991F60938A0570938B058093CD
:100610008C0590938D05CA01A0E0B0E0880F991F6A
:10062000AA1FBB1F90938F0580938E0580E0452BFA
:1006300009F081E08093950508951F920F920FB6FF
:100640000F9211242F938F939F93AF93BF93EF93A8
:10065000FF9380919405882339F0EBE2F0E08081EC
:10066000826080831092940580919005909191050D
:10067000A0919205B091930580509040A140B04068
:1006800008F580919505809394058091900590914F
:100690009105A0919205B091930590938900809364
:1006A000880080918A0590918B05A0918C05B0916E
:1006B0008D058093900590939105A0939205B0933A
:1006C00093051AC08091900590919105A091920593
:1006D000B091930580509040A140B0408093900528
:1006E00090939105A0939205B09393058FEF9FEFA0
:1006F0009093890080938800FF91EF91BF91AF9113
:100700009F918F912F910F900FBE0F901F90189572
:100710001F920F920FB60F9211248F939F93EF9316
:10072000FF93EBE2F0E080818D7F808380918E05E6
:1007300090918F0590938B0080938A00FF91EF91A9
:100740009F918F910F900FBE0F901F901895629FF1
:10075000D001739FF001829FE00DF11D649FE00DB9
:10076000F11D929FF00D839FF00D749FF00D659F1A
:10077000F00D9927729FB00DE11DF91F639FB00D19
:10078000E11DF91FBD01CF0111240895A1E21A2E28
:10079000AA1BBB1BFD010DC0AA1FBB1FEE1FFF1F25
:1007A000A217B307E407F50720F0A21BB30BE40B75
:1007B000F50B661F771F881F991F1A9469F76095BC
:1007C0007095809590959B01AC01BD01CF01089576
:0407D000F894FFCFCB
:1007D400FFFFC8DD0100F7C20100A8A90100C49110
:1007E4000100377B0100EF650100D8510100E23EB2
:1007F4000100FC2C0100171C0100250C010019FD4F
:100804000000E4EE00007CE10000D4D40000E2C863
:1008140000009CBD0000F7B20000ECA80000719F2E
:1008240000007E9600000C8E0000138600008C7E73
:10083400000072770000BE7000006A6A00007164F4
:100844000000CE5E00007C59000076540000B84FD2
:1008540000003F4B00000647000009430000463FEC
:100864000000B93B00005F38000035350000383225
:100874000000672F0000BE2C00003B2A0000DC278C
:1008840000009F2500008323000085210000A31F92
:100894000000DD1D00002F1C00009A1A00001C1926
:1008A4000000B31700005F1600001D150000EE13D2
:1008B4000000D0120000C1110000C2100000D20FCD
:1008C4000000EE0E0000180E00004D0D00008E0C0E
:1008D4000000DA0B00002F0B00008F0A0000F7095C
:1008E400000068090000E108000061080000E90751
:1008F4000000770700000C070000A7060000470669
:100904000000ED0500009805000047050000FC0408
:100914000000B40400007004000031040000F4037B
:100924000000BC03000086030000530300002403FE
:100934000000F6020000CC020000A40200007E02C7
:1009440000005A0200003802000018020000FA01F8
:100954000000DE010000C3010000AA0100009201B2
:1009640000007B01000066010000520100003F010D
:1009740000002D0100001C0100000C010000FD001E
:100984000000EF000000E1000000D5000000C900F5
:100994000000BE000000B3000000A90000009F009A
:1009A4000000960000008E000000860000007F001A
:1009B400000077000000710000006A00000064007D
:1009C40000005F00000059000000540000005000C7
:1009D400000000005B0080009D00B600CB00DE003C
:1009E400F000010110011F012D013A0147015401DA
:1009F40060016B01760181018C019601A001AA01BD
:100A0400B301BD01C601CF01D801E001E901F10143
:100A1400F90102020902110219022102280230021C
:100A240037023E0245024C0253025A026102680236
:100A34006E0275027B02820288028F0295029B027B
:100A4400A102A702AD02B302B902BF02C502CB02E2
:100A5400D102D602DC02E102E702ED02F202F70261
:100A6400FD02020308030D03120317031D032203EF
:100A740027032C03310336033B03400345034A0396
:100A84004F03540358035D03620367036B0370034E
:100A9400750379037E03830387038C039003950313
:100AA40099039E03A203A703AB03AF03B403B803E4
:100AB400BC03C103C503C903CD03D203D603DA03C0
:100AC400DE03E203E703EB03EF03F303F703FB03A4
:040AD400FF03FF001D
:00000001FF
